S00F0000534F4C494E4441522E61627330
S12320808B828A80A642C718024FC71803A61CC71808A602C71809C6180BA4C7C7180BC6EE
S12320A0FFAF41FF0CC6FFAFB73AC6FFAEA401B73B6E06386E4039093BFDB63BA4BFAAA041
S12320C0B73BB63BA4C0A18026F8CC215A000120D3218C00A0000B00000000000000008B58
S12320E0899EFE05F6AF019EFF05888A81A7FCC620CE4C95E701C620CD4CF73220CF201F61
S1232100898BF687E6024C9EE706E603EE018A4C20037FAF014BFB9E6B05F78A88AF049EBD
S12321206B02DD9E6B01D93220D1898BADB1974C9EE703ADAA4C9EE7044A2603510018ADB9
S12321409E878AAD9A972005AD95F7AF019E6B04F79E6B03F320D5A706814502AB94AD8DFA
S1232160AC0080078BB612C700A6B613C700A7A601C700A2AC0080064FC700A38A808B455C
S11621801830F6AA80F7AC0080008A80000100A001000011
S1238000A601C700A18D8DAC0080A42065C600A12760C600A0A1012606AC008074203AA121
S1238020022606AC0080802030A1032606AC00808C2026A1042606AC008074201CA10526CB
S123804006AC0080982012A1062606AC00808C2008A107260DAC008080C700A94500A07C15
S1238060200CAC008098C700A9A601C700A04FC700A12099B606A840B706C600A9A8408DD9
S1238080B606A810B706C600A9A8108DB606A820B706C600A9A8208DB606A880B706C6008B
S12380A0A9A8808DA6FFC7180EC7180F1017B606A41DAA10B70645184CF6A40DF7B607AA15
S12380C0F2B7071D00451840F6A4BDF7B601A4FDAA40B7011A031B02451841F6A420F74F12
S12380E0C71845C71849C7184DC71851C71855C71859C7185DC71861A6DFC71842A6FFC7DA
S12381001846C7184AC7184EC71852C71856C7185AC7185EC71862AC00814B4500A9F6A48A
S1238120BFF7A47FF7AA10F7A4DFF74500AAF6A4BFF7AC008168AC0081864500A9F6A4FD34
S1238140F7AC00819A4FC700A89A8D6E1F103F114FC700A2C700A36E07168D873F403F41CB
S1238160B64095FAB7408A8D3F406E3C48AE0B8C9600A4A604AC00815BAE098C354945DA66
S1238180E0354316408D4F451830F7A6FEC71832C61832C71832A6D4F78D3F505F8C3553F7
S11B81A03F513556B650A4FBAA03B7506E0455B650A4EFAA08B7508DA9
S104FFBDFF40
S123FFBF7E2080208020802080208020802080217E2080208020802080216420802080203C
S123FFDF8020802080208020802080208020802080208020802080208020802080208020FE
S104FFFF8479
S9030000FC
